{
  "_format": "hh-sol-artifact-1",
  "contractName": "WavePortal",
  "sourceName": "contracts/WavePortal.sol",
  "abi": [
    {
      "inputs": [],
      "stateMutability": "nonpayable",
      "type": "constructor"
    },
    {
      "inputs": [],
      "name": "getTotalWaves",
      "outputs": [
        {
          "internalType": "uint256",
          "name": "",
          "type": "uint256"
        }
      ],
      "stateMutability": "view",
      "type": "function"
    },
    {
      "inputs": [
        {
          "internalType": "address",
          "name": "_user",
          "type": "address"
        }
      ],
      "name": "getWavesByWavers",
      "outputs": [
        {
          "internalType": "uint256",
          "name": "",
          "type": "uint256"
        }
      ],
      "stateMutability": "view",
      "type": "function"
    },
    {
      "inputs": [],
      "name": "wave",
      "outputs": [],
      "stateMutability": "nonpayable",
      "type": "function"
    },
    {
      "inputs": [
        {
          "internalType": "address",
          "name": "",
          "type": "address"
        }
      ],
      "name": "waveMap",
      "outputs": [
        {
          "internalType": "uint256",
          "name": "",
          "type": "uint256"
        }
      ],
      "stateMutability": "view",
      "type": "function"
    }
  ],
  "bytecode": "0x608060405234801561001057600080fd5b506100596040518060400160405280600e81526020017f526964652074686520576176652100000000000000000000000000000000000081525061005e60201b6103421760201c565b6101e1565b6100fa81604051602401610072919061015f565b6040516020818303038152906040527f41304fac000000000000000000000000000000000000000000000000000000007bffffffffffffffffffffffffffffffffffffffffffffffffffffffff19166020820180517bffffffffffffffffffffffffffffffffffffffffffffffffffffffff83818316178352505050506100fd60201b60201c565b50565b60008151905060006a636f6e736f6c652e6c6f679050602083016000808483855afa5050505050565b600061013182610181565b61013b818561018c565b935061014b81856020860161019d565b610154816101d0565b840191505092915050565b600060208201905081810360008301526101798184610126565b905092915050565b600081519050919050565b600082825260208201905092915050565b60005b838110156101bb5780820151818401526020810190506101a0565b838111156101ca576000848401525b50505050565b6000601f19601f8301169050919050565b6107dc806101f06000396000f3fe608060405234801561001057600080fd5b506004361061004c5760003560e01c80632137b3ff146100515780636fe15b44146100815780639a2cdc081461008b578063d409d421146100a9575b600080fd5b61006b60048036038101906100669190610551565b6100d9565b6040516100789190610653565b60405180910390f35b61008961019e565b005b6100936102df565b6040516100a09190610653565b60405180910390f35b6100c360048036038101906100be9190610551565b61032a565b6040516100d09190610653565b60405180910390f35b60006101586040518060400160405280601781526020017f5765206861766520256420746f74616c207761766573210000000000000000008152506000808573ffffffffffffffffffffffffffffffffffffffff1673ffffffffffffffffffffffffffffffffffffffff168152602001908152602001600020546103db565b6000808373ffffffffffffffffffffffffffffffffffffffff1673ffffffffffffffffffffffffffffffffffffffff168152602001908152602001600020549050919050565b60018060008282546101b0919061068a565b9250508190555060008060003373ffffffffffffffffffffffffffffffffffffffff1673ffffffffffffffffffffffffffffffffffffffff1681526020019081526020016000205414156102475760016000803373ffffffffffffffffffffffffffffffffffffffff1673ffffffffffffffffffffffffffffffffffffffff1681526020019081526020016000208190555061029e565b60016000803373ffffffffffffffffffffffffffffffffffffffff1673ffffffffffffffffffffffffffffffffffffffff1681526020019081526020016000206000828254610296919061068a565b925050819055505b6102dd6040518060400160405280600d81526020017f257320686173207761766564210000000000000000000000000000000000000081525033610477565b565b60006103226040518060400160405280601781526020017f5765206861766520256420746f74616c207761766573210000000000000000008152506001546103db565b600154905090565b60006020528060005260406000206000915090505481565b6103d88160405160240161035691906105d1565b6040516020818303038152906040527f41304fac000000000000000000000000000000000000000000000000000000007bffffffffffffffffffffffffffffffffffffffffffffffffffffffff19166020820180517bffffffffffffffffffffffffffffffffffffffffffffffffffffffff8381831617835250505050610513565b50565b61047382826040516024016103f1929190610623565b6040516020818303038152906040527f9710a9d0000000000000000000000000000000000000000000000000000000007bffffffffffffffffffffffffffffffffffffffffffffffffffffffff19166020820180517bffffffffffffffffffffffffffffffffffffffffffffffffffffffff8381831617835250505050610513565b5050565b61050f828260405160240161048d9291906105f3565b6040516020818303038152906040527f319af333000000000000000000000000000000000000000000000000000000007bffffffffffffffffffffffffffffffffffffffffffffffffffffffff19166020820180517bffffffffffffffffffffffffffffffffffffffffffffffffffffffff8381831617835250505050610513565b5050565b60008151905060006a636f6e736f6c652e6c6f679050602083016000808483855afa5050505050565b60008135905061054b8161078f565b92915050565b60006020828403121561056357600080fd5b60006105718482850161053c565b91505092915050565b610583816106e0565b82525050565b60006105948261066e565b61059e8185610679565b93506105ae81856020860161071c565b6105b78161077e565b840191505092915050565b6105cb81610712565b82525050565b600060208201905081810360008301526105eb8184610589565b905092915050565b6000604082019050818103600083015261060d8185610589565b905061061c602083018461057a565b9392505050565b6000604082019050818103600083015261063d8185610589565b905061064c60208301846105c2565b9392505050565b600060208201905061066860008301846105c2565b92915050565b600081519050919050565b600082825260208201905092915050565b600061069582610712565b91506106a083610712565b9250827fffffffffffffffffffffffffffffffffffffffffffffffffffffffffffffffff038211156106d5576106d461074f565b5b828201905092915050565b60006106eb826106f2565b9050919050565b600073ffffffffffffffffffffffffffffffffffffffff82169050919050565b6000819050919050565b60005b8381101561073a57808201518184015260208101905061071f565b83811115610749576000848401525b50505050565b7f4e487b7100000000000000000000000000000000000000000000000000000000600052601160045260246000fd5b6000601f19601f8301169050919050565b610798816106e0565b81146107a357600080fd5b5056fea264697066735822122082282d273e412e29cb36cbe5f077050027754b6ee5df0fe5a8a55327ed19035464736f6c63430008040033",
  "linkReferences": {},
  "deployedLinkReferences": {}
}